:020000040000fa
:080000000002040000000000f2
:020000040000fa
:0400080004030000ed
:020000040000fa
:04000c0004030000e9
:020000040000fa
:0400100004030000e5
:020000040000fa
:0400140004030000e1
:020000040000fa
:0400180004030000dd
:020000040000fa
:04001c0004030000d9
:020000040000fa
:0400200004030000d5
:020000040000fa
:0400240004030000d1
:020000040000fa
:0400280004030000cd
:020000040000fa
:04002c0004030000c9
:020000040000fa
:0400300004030000c5
:020000040000fa
:04003400d4020000f2
:020000040000fa
:0400380004030000bd
:020000040000fa
:04003c0004030000b9
:020000040000fa
:0400400004030000b5
:020000040000fa
:0400440004030000b1
:020000040000fa
:0400480004030000ad
:020000040000fa
:04004c0004030000a9
:020000040000fa
:0400500004030000a5
:020000040000fa
:0400540004030000a1
:020000040000fa
:04005800040300009d
:020000040000fa
:04005c000403000099
:020000040000fa
:040060000403000095
:020000040000fa
:040064000403000091
:020000040000fa
:04006800040300008d
:020000040000fa
:04006c000403000089
:020000040000fa
:040070000403000085
:020000040000fa
:040074000403000081
:020000040000fa
:04007800040300007d
:020000040000fa
:04007c000403000079
:020000040000fa
:040080000403000075
:020000040000fa
:040084000403000071
:020000040000fa
:04008800040300006d
:020000040000fa
:04008c000403000069
:020000040000fa
:040090000403000065
:020000040000fa
:040094000403000061
:020000040000fa
:04009800040300005d
:020000040000fa
:04009c000403000059
:020000040000fa
:0400a0000403000055
:020000040000fa
:0400a4000403000051
:020000040000fa
:0400a800040300004d
:020000040000fa
:0400ac000403000049
:020000040000fa
:0400b0000403000045
:020000040000fa
:0400b4000403000041
:020000040000fa
:0400b800040300003d
:020000040000fa
:0400bc000403000039
:020000040000fa
:0400c0000403000035
:020000040000fa
:0400c4000403000031
:020000040000fa
:0400c800040300002d
:020000040000fa
:0400cc000403000029
:020000040000fa
:0400d0000403000025
:020000040000fa
:0400d4000403000021
:020000040000fa
:0400d800040300001d
:020000040000fa
:0400dc000403000019
:020000040000fa
:0400e0000403000015
:020000040000fa
:0400e4000403000011
:020000040000fa
:0400e800040300000d
:020000040000fa
:0400ec000403000009
:020000040000fa
:0400f0000403000005
:020000040000fa
:0400f4000403000001
:020000040000fa
:0400f80004030000fd
:020000040000fa
:0400fc0004030000f9
:020000040000fa
:0401000004030000f4
:020000040000fa
:0401040004030000f0
:020000040000fa
:0401080004030000ec
:020000040000fa
:04010c0004030000e8
:020000040000fa
:0401100004030000e4
:020000040000fa
:0401140004030000e0
:020000040000fa
:0401180004030000dc
:020000040000fa
:04011c0004030000d8
:020000040000fa
:0401200004030000d4
:020000040000fa
:0401240004030000d0
:020000040000fa
:0401280004030000cc
:020000040000fa
:04012c0004030000c8
:020000040000fa
:0401300004030000c4
:020000040000fa
:0401340004030000c0
:020000040000fa
:0402080004030000eb
:020000040000fa
:04020c0004030000e7
:020000040000fa
:0402100004030000e3
:020000040000fa
:0402140004030000df
:020000040000fa
:0402180004030000db
:020000040000fa
:04021c0004030000d7
:020000040000fa
:0402200004030000d3
:020000040000fa
:0402240004030000cf
:020000040000fa
:0402280004030000cb
:020000040000fa
:04022c0004030000c7
:020000040000fa
:0402300004030000c3
:020000040000fa
:04023400d4020000f0
:020000040000fa
:0402380004030000bb
:020000040000fa
:04023c0004030000b7
:020000040000fa
:0402400004030000b3
:020000040000fa
:0402440004030000af
:020000040000fa
:0402480004030000ab
:020000040000fa
:04024c0004030000a7
:020000040000fa
:0402500004030000a3
:020000040000fa
:04025400040300009f
:020000040000fa
:04025800040300009b
:020000040000fa
:04025c000403000097
:020000040000fa
:040260000403000093
:020000040000fa
:04026400040300008f
:020000040000fa
:04026800040300008b
:020000040000fa
:04026c000403000087
:020000040000fa
:040270000403000083
:020000040000fa
:04027400040300007f
:020000040000fa
:04027800040300007b
:020000040000fa
:04027c000403000077
:020000040000fa
:040280000403000073
:020000040000fa
:04028400040300006f
:020000040000fa
:04028800040300006b
:020000040000fa
:04028c000403000067
:020000040000fa
:040290000403000063
:020000040000fa
:04029400040300005f
:020000040000fa
:04029800040300005b
:020000040000fa
:04029c000403000057
:020000040000fa
:0402a0000403000053
:020000040000fa
:0402a400040300004f
:020000040000fa
:0402a800040300004b
:020000040000fa
:0402ac000403000047
:020000040000fa
:0402b0000403000043
:020000040000fa
:0402b400040300003f
:020000040000fa
:0402b800040300003b
:020000040000fa
:0402bc000403000037
:020000040000fa
:0402c0000403000033
:020000040000fa
:0402c400040300002f
:020000040000fa
:0402c800040300002b
:020000040000fa
:0402cc000403000027
:020000040000fa
:0402d0000403000023
:020000040000fa
:0402d400040300001f
:020000040000fa
:0402d800040300001b
:020000040000fa
:0402dc000403000017
:020000040000fa
:0402e0000403000013
:020000040000fa
:0402e400040300000f
:020000040000fa
:0402e800040300000b
:020000040000fa
:0402ec000403000007
:020000040000fa
:0402f0000403000003
:020000040000fa
:0402f40004030000ff
:020000040000fa
:0402f80004030000fb
:020000040000fa
:0402fc0004030000f7
:020000040000fa
:0403000004030000f2
:020000040000fa
:0403040004030000ee
:020000040000fa
:0403080004030000ea
:020000040000fa
:04030c0004030000e6
:020000040000fa
:0403100004030000e2
:020000040000fa
:0403140004030000de
:020000040000fa
:0403180004030000da
:020000040000fa
:04031c0004030000d6
:020000040000fa
:0403200004030000d2
:020000040000fa
:0403240004030000ce
:020000040000fa
:0403280004030000ca
:020000040000fa
:04032c0004030000c6
:020000040000fa
:0403300004030000c2
:020000040000fa
:0403340004030000be
:020000040000fa
:100400006fc721000e7f22000e018800000000004f
:10041000000020000000e000020032000001200087
:100420002002880014000700790007000000e000a7
:1004300003003a00e04323000100200002003700df
:100440000000200001002000810f70000100320038
:1004500014000700000020000000e000020032004d
:100460000000020000000000742f020000000000e5
:100470000040da000000fe004440a900c004200053
:100480000000e0000300320000002000a00188000e
:100490004440a800000006008a1f78008b1f7800e7
:1004a0000000060091018800800478000000eb0045
:1004b0001a003700e284440032a0b4009905ba0063
:1004c000e284440032a0b4009906ba00e2844400f9
:1004d00032a0b4000006eb00476fde00fd07b2005b
:1004e000636ce10003003a00ebff07000000eb0043
:1004f0000a003700606ce10004003a00005deb0088
:100500008b05e900fdff3e00040037006168e10053
:10051000010032000086eb000b00070019c7ba008b
:100520001905ba000e04e00003003a000a00e000da
:10053000e0ff3a0000000600fe07b2009e018800be
:100540008a047800f5ff3700395dba008b05e900b1
:100550000c003200295dba008b05e900080032006a
:100560000c00e00003003a00e284440032a0b40032
:10057000f5ff370019ddba008b05e900faff3a00f4
:100580008904e800e184440032a0b40000000600c1
:100590003211040000000000e22f040000000000ff
:1005a000ae300400000000003600f800809fbe005e
:1005b000829fbe00849fbe00869fbe003400f8006c
:1005c00000002000a00188000000fa008460a9005b
:1005d000800407000000e00003003200ee33020058
:1005e00000000000000000000080fa003400f90064
:1005f0004f03be004f02be004f01be004f00be00c1
:100600003600f900004006000040da000000fe005d
:10061000000005008001780002003700b159780021
:100620000201e9000200e000fcff3a0000000600c1
:10063000889fbe008a9fbe00800478000200e00010
:100640005b00320001407800814c780082814400d8
:10065000f1f99f00e20f51005500360091449800d7
:10066000a1449800e1f99f00d1f99f00e60f5100e5
:100670004f003600b1449800c1f99f00e80f5100c7
:100680004b0036000905ea00630565000a84440052
:100690000a055100c1ff2f00010565000080fb0025
:1006a0008000eb001210200013102000440007000f
:1006b000008cbe000a01440060b99f0071b99f0020
:1006c000e80f55003a0036002004980031049800e5
:1006d000400498005104980020b99f0031b99f0050
:1006e00040b99f0051b99f00f80f55003000360007
:1006f0006004980071049800000c9800110c980098
:10070000200c9800310c9800400c9800510c980077
:1007100020b19f0031b19f0040b19f0051b19f00b7
:1007200060b19f0071b19f0000b99f0011b99f0097
:100730006401640078014100020444000205550090
:100740006011b8000203be000002be000403be0038
:100750006022b80000007200818072000201730004
:100760008381730010003700009cbe000294be001d
:1007700040049800510498006204980073049800a3
:10078000000c9800110c9800220c9800330c980073
:10079000400c9800510c9800620c9800730c980063
:1007a0000a02b1000802b000ff0f5500eeff3e0044
:1007b000090078004f05be004f04be00000006008f
:1007c000020ab900001bb9000200b8008100420013
:0807d000810043000000060057
:020000040000fa
:1007d800436f00006e740000726f00006c650000cb
:1007e8005f430000656e000074720000616c0000d9
:1007f800004300006f6e0000747200006f6c000010
:10080800655f00004174000075610000646f0000be
:100818007265000073000000111100002222000020
:10082800333300004444000055550000666600005c
:10083800777700008888000099990000aaaa00002c
:10084800bbbb0000cccc0000dddd0000eeee0000fc
:10085800cecd0000acab000003000000494400000e
:080868004c45000000000000f7
:020000040000fa
:100870001000fa00200798003107980042079800fe
:10088000530798006407980075079800a00220009d
:100890008d170700000f78001e0078000000e000b0
:1008a00012003200a20220008000eb001e0078003f
:1008b0005fff07004e009000000040008217070015
:1008c000800078001e007800410898001e00780023
:1008d000400890000000e00004003a001e0078008c
:1008e000b01707000000eb00000f78001e00780032
:1008f0000000e000120032004e0090008000eb008b
:100900000001eb00821f78009e0378007e039000b8
:10091000ee0290005e0290000001be00be0090005a
:100920002e0090000b0007008f87e9001e00780062
:100930006200070010002000100798000200370036
:100940000080eb00100798001e0090000080fa0065
:10095000000006001400fa002007980031079800f4
:10096000420798005307980064079800750798009d
:10097000060f9800170f98001e089000c0089000fe
:10098000110798001e089000c00890004e019000ca
:10099000f0ff270000004100000040008080400080
:1009a0001e089000710898003e0090000000e000d2
:1009b000180032000000eb00000f78000d00370037
:1009c0003e0090001e004000904078001e089000fd
:1009d0001e0040007a004000014878003e00900070
:1009e0001e004000104078000004e00005003200c6
:1009f0001e0fe8001e007800e30f5000f0ff3600e5
:100a000001003700000000001e0890008040eb004d
:100a1000515898007e009000e30f5000020036000d
:100a200030002000700798001e089000fe00900023
:100a3000310898001e089000fe00900001109800f8
:100a40001e0890000080e800131607001e089000a2
:100a50006c004000101607001e0890009e089000d1
:100a6000410098007e009000e40010001e089000f5
:100a7000610098001e0890009e08900011089800e0
:100a80006e019000ae0090001e0090007d160700e1
:100a9000800078001e089000010878000e08900081
:100aa0000000e000030032000e0890009e08900055
:100ab000010878000080fa00000006000400fa0037
:100ac00010079800e5160700304080000000e8009d
:100ad00030408800004080000000e00007003a003d
:100ae0009e0090000140880030408000e10f5000df
:100af0000d003a00e70507000b003700604080005a
:100b00000000e00008003a0000408000b0089000bb
:100b10001e00900030089000808f500002003e00c0
:100b20009e00900001408800a04080000000e80086
:100b3000a04088001e009000b00890005040800047
:100b4000808f5000030036001e0090003008900097
:100b5000504088001e009000300890006a00b900e4
:100b60008000780060c2210000804000900090006a
:100b7000010f78001e0090009e0078002100980070
:100b80001e007800a00090001e0090003100980028
:100b90001e007800200090009e0090008180e800f8
:100ba000110098001e0090008080e8001e00780070
:100bb000210098001e009000300890006a00b900e3
:100bc0008000780060c22100808040001e009000fc
:100bd000510098001e009000300890006a00b90093
:100be0008000780060c22100008040009000780002
:100bf0008100e80001087800a51607006040800029
:100c00000000e0000900320000408000b0089000c1
:100c10001e00900030089000808f500003003100cb
:100c2000ee33020000000000000000000080fa0027
:100c3000000006000c00fa004007980051079800d9
:100c40000000eb00000f7800040207004140800024
:100c5000110798004e009000900078005e00900010
:100c600000804000200798004e009000900078001f
:100c70001e009000808f50000c0036004e00900047
:100c8000900078002e009000808f500012003600f7
:100c9000ae0090001e009000808f50000e003600c5
:100ca00010002000000f78000b0037004e0090006d
:100cb000900078002e009000808f500004003e00cd
:100cc000ae0090001e009000808f500002003600a1
:100cd00010002000000f78004e009000ae00900041
:100ce000010878001e0078000000e00005003200d6
:100cf000ae0090001e009000008050008000eb00cd
:100d0000450a0700db010700300798003e0090000d
:100d10000000e00003003a00ee3302000000000093
:100d2000000000001e0078000080fa0000000600ad
:100d30000400fa00100798000000eb00000f780094
:100d40001e0090000000e00006003200c301070012
:100d50008000eb001e0090002f0a0700c50107006d
:100d6000000f78001e0078000000e00003003a0049
:100d7000ee33020000000000000000000080fa00d6
:100d8000000006000e00fa00500798006107980066
:100d90000000eb00000f78006e009000e30f5000a1
:100da0000200360030002000600798002b16070074
:100db0005e0090000000e00002003a000040800069
:100dc000010037005e009000100798001e009000a0
:100dd0008010900021079800ae0090006e009000f7
:100de000808f500070003200ee0090002e009000c6
:100df000808f50000c003600004080009e00900064
:100e0000808f50000e00320000408000b00890003b
:100e10006e009000808f500009003e0010002000fe
:100e2000000f780006003700004080009e00900010
:100e3000808f500002003a0010002000000f780060
:100e40001e009000b0089000310798001e0090002e
:100e5000801090001e00900030089000808f50009d
:100e600003003a001e009000ee0090003108980048
:100e70001e009000ee009000011098001e009000ef
:100e8000600090000000e000040035006e0090005b
:100e9000e40010001e009000610098001e00900009
:100ea000500190003e0090006a00b9008000780078
:100eb00060c2210000804000800f510034003a00e1
:100ec0001e0090000080e8004a1507001e009000f8
:100ed000b008900050408000808f50000300360022
:100ee0001e00900030089000504088001e009000c6
:100ef000300890006a00b9008000780060c22100cc
:100f00000080400090009000410798001e00900073
:100f1000ce009000210098004e009000a0009000ac
:100f20001e009000310098004e00900020009000bc
:100f30009e0090008180e800110098001e00900043
:100f40008080e8004e009000210098001e00900074
:100f5000300890006a00b9008000780060c221006b
:100f6000808040001e009000510098001e009000fc
:100f7000300890006a00b9008000780060c221004b
:100f800000804000900078008100e80001087800af
:100f90001e0078000000e00003003200ee33020083
:100fa0000000000000000000b91507000080fa00f2
:100fb000000006000600fa0020079800a7150700a9
:100fc0002e0090000000e00002003a000040800087
:100fd000010037002e009000100798001e009000be
:100fe0000080e800031507001e0090002008900014
:100ff0000000e000030032001e0090006c00400082
:10100000fc1407001e0090000080e80080007800bb
:10101000c0c62100a71407000000eb00000f7800f5
:101020000c0037009e009000820220001e0041004c
:1010300061407800e14f500005003a001e0090002a
:101040001e0040008002b0008040eb0001487800a4
:101050001e0fe8001e0078000000e000f1ff3400e1
:101060008b150700604080000000e00003003200a4
:101070007a150700a60407008515070000408000c8
:101080009e009000808f50000e003a00604080006b
:101090000000e00004003200ee3302000000000017
:1010a000000000000700370061e38000304080004e
:1010b000808f500002003a000028ef000100370046
:1010c0008a0207000080fa00000006000600fa000d
:1010d000200798000000eb00000f7800ae009000a1
:1010e000110798001e009000d0009000c0c621009b
:1010f000808f50000b003a001e009000a008900066
:1011000020c62100808f5000060032001e00900093
:10111000200890000000e00002003a0010002000cb
:10112000000f78001e0078000080fa000000060022
:101130000600fa0020079800ae009000010f78002a
:10114000004080009e007800808f500043003200f5
:101150001e0078000000e000400032003f1507004c
:101160001e007800d9ff07000000e0003a003200be
:101170001e80e8009f1407001e007800b008900051
:1011800050408000808f5000030036001e00780021
:1011900030089000504088001e0078003008900011
:1011a0006a00b9008000780060c221000080400021
:1011b00090009000110798001e0078009e0090009b
:1011c000210098001e009000a00090001e007800f2
:1011d000310098001e009000200090009e80e800e2
:1011e000110098009e80e8001e00900021009800e9
:1011f0001e007800300890006a00b9008000780076
:1012000060c22100808040001e00780051009800dc
:101210001e007800300890006a00b9008000780055
:1012200060c2210000804000900078008100e8004a
:10123000010878001e007800b0089000004080008f
:1012400030089000808f500003003900ee33020018
:1012500000000000000000000d1507000080fa00eb
:10126000000006000a00fa00400798000000eb00aa
:10127000000f7800ce009000110798000000eb00ee
:10128000200798001e00900090ff07000000e0007b
:1012900047003200d04080000000e0003f003a00ec
:1012a0001e009000b00890000040800030089000c0
:1012b000808f50000400390010002000000f7800db
:1012c00010002000804088001e0090000080e80090
:1012d000481407001e009000b008900050408000a5
:1012e000808f5000030036001e00900030089000f0
:1012f000504088001e009000300890006a00b9003d
:101300008000780060c221000080400090009000c2
:10131000310798001e009000be0090002100980048
:101320003e009000a00090001e0090003100980048
:101330003e009000200090009e0090008180e80018
:10134000110098001e0090008080e8003e00900090
:10135000210098001e009000300890006a00b9003b
:101360008000780060c22100808040001e00900054
:10137000510098001e009000300890006a00b900eb
:101380008000780060c2210000804000900078005a
:101390008100e80001087800050037001e00900079
:1013a0006c0040008000780020c62100c1130700b7
:1013b0001e0078000080fa00000006000200fa001b
:1013c000858120000002eb008001eb003207200045
:1013d000214328002013210025fd0700000f78007d
:1013e0001e007800e10f50000d003a00110280004d
:1013f000f0f12f00008060000050a0001002880073
:1014000000000000000000000080eb00b0408800f9
:1014100010002000604088000828ef0061140700d9
:10142000802184000080fa00000006000000fa001d
:1014300011028000f0f12f00008060000050a00039
:101440001002880000000000000000000c28ef00df
:101450006b1407000080fa00000006000000fa008c
:10146000d04080000000e800d04088000080fa00f2
:10147000000006000c00fa000000eb00000f7800ee
:101480000000eb001007980074140700d0408000a3
:101490000000e900d0408800d04080000000e0005b
:1014a0009b003a00304080000000e00098003200cd
:1014b0007700370040e3800030009000000f780094
:1014c0001e007800a0089000310798001e007800e8
:1014d000700090009e007800810890002100980024
:1014e0001e007800000890009e007800f100900037
:1014f000110098003e009000900090001e017800be
:101500006c004100808f500004003a001e007800fb
:10151000800890003e009000110098001e007800a6
:101520008000eb00210898003e0090001000780039
:101530008000e9003e009000010878001e0078005d
:10154000d0009000410798001e0078002000900015
:101550009e007800b1009000210098001e007800e5
:10156000300090009e007800a100900011009800cb
:101570004e009000900090001e80e800808f500088
:1015800004003a001e007800b00090004e00900069
:10159000110098001e0078008000eb0051009800b8
:1015a0004e009000100078008000e9004e0090008e
:1015b000010878001e007800b008900050408000bc
:1015c000808f5000030036001e0078003008900025
:1015d000504088001e007800300890006a00b90072
:1015e0008000780060c2210000804000100190005f
:1015f000520798001e007800de009000210098003d
:101600005e009000a00090001e007800310098005d
:101610005e009000200090009e80e800110098007d
:101620009e80e8005e009000210098001e00780077
:10163000300890006a00b9008000780060c2210084
:10164000808040001e007800510098001e00780045
:10165000300890006a00b9008000780060c2210064
:1016600000804000900078008100e80001087800c8
:101670001e007800b0089000004080003008900004
:10168000808f500002003900100020008040880048
:1016900010e380000000e00086ff3a001e007800a2
:1016a0000000e000010032001903070072408000d2
:1016b000220798002e0090000000e0000c0032008d
:1016c000440007000000e00002003200100020008b
:1016d000804088002e0090000000e900200798005c
:1016e0002e0090000000e000f5ff3a000e28ef0009
:1016f000804080000000e000050032001000200063
:1017000010079800ee330200000000000000000007
:10171000df1307001e0090000080fa0000000600a2
:101720000200fa0041408000010f78001e0078009e
:101730000080fa00000006000400fa000000eb0040
:10174000000f780041408000110798001e009000b3
:101750000080fa00000006000000fa00304080001f
:101760000080fa00000006000400fa00100798004c
:101770001e0090000000e00002003a0000408000df
:10178000010037001e009000000f78009e007800d6
:101790007a8040000080fa00000006000400fa0091
:1017a000100798002dff0700ac1307007140800060
:1017b0001e0090000080400070408800b4130700b5
:1017c0002cff0700000f78001e0078000080fa0050
:1017d000000006001000fa000000eb00000f780087
:1017e000d04080000000e000ba003a004040800095
:1017f0000000e800100798009e009000414088001b
:101800001e0090000000e0000a003a001140800035
:10181000210798002040800010408800ae00900012
:1018200021408800904080000000e800904088003f
:10183000b7020700b04080009e009000808f5000eb
:1018400093003900010037000000000010408000c4
:10185000100078000000e00003003a000080eb0078
:10186000b04088008a0037001040800030009000af
:1018700030009000300798003e00900090009000eb
:10188000410798009e0090004e009000808f50000d
:1018900003003100ce009000b14088007c0037008a
:1018a0003e009000d0009000510798003e0090004c
:1018b00020009000be009000b10090002100980030
:1018c0003e00900030009000be009000a10090000b
:1018d000110098005e009000900090003e00900083
:1018e0000080e800808f500004003a003e00900025
:1018f000b00090005e009000110098003e00900043
:101900008000eb00510098005e009000100078000d
:101910008000e9005e009000010878003e00900021
:10192000200890000000e0001f0032003e00900000
:10193000a0089000610798003e00900070009000a1
:10194000be00900081089000210098003e009000a9
:1019500000089000be009000f10090001100980077
:101960006e009000900090003e0090006c004000df
:10197000808f500004003a003e00900080089000e4
:101980006e009000110098003e0090008000eb0077
:10199000210898006e009000100078008000e90097
:1019a0006e009000010878003e009000b0089000a2
:1019b00050408000808f5000030036003e009000b1
:1019c00030089000504088003e00900030089000a1
:1019d0006a00b9008000780060c2210000804000e9
:1019e00090009000710798003e009000fe0090006b
:1019f000210098007e009000a00090003e00900022
:101a0000310098007e00900020009000be00900001
:101a10008180e800110098003e0090008080e8007e
:101a20007e009000210098003e0090003008900059
:101a30006a00b9008000780060c221008080400008
:101a40003e009000510098003e0090003008900049
:101a50006a00b9008000780060c221000080400068
:101a6000900078008100e800010878003e009000b6
:101a7000b00890000040800030089000808f500037
:101a800071ff360010002000000f78006fff370054
:101a900000408000300890006a00b90080007800a3
:101aa00060c221000080400010007800e10f50006b
:101ab0000200360010002000000f780080408000f7
:101ac0000000e0000600320010002000000f780047
:101ad00003003700704080000000e800704088007c
:101ae0001e0078000080fa00000006000400fa00e2
:101af000d04080000000e000030032001000200011
:101b000080408800290037001028ef0051408000f5
:101b1000010f7800010037001e0fe9001e00780059
:101b20006a00b9008000780060c221000080400097
:101b3000100078000000e000f7ff32001e0078007f
:101b40006a00b9008000780060c221000080400077
:101b5000100798001e009000100090009000900068
:101b60001e009000110098001e0090009000900050
:101b70001e00900064004000808f500005003a0075
:101b80001e00900010009000900090001e00900039
:101b9000110098001e00900010009000300090008e
:101ba000004088009e007800514088000080fa00c4
:101bb000000006000400fa00000f780011079800ea
:101bc000004080006c004000800078001e0078001b
:101bd000d6110700110020001e0090008e0607009d
:101be0000080fa00000006000800fa0010079800c4
:101bf000210798003207980000408000ae00900056
:101c000001f0a000610098001e009000900090007c
:101c1000010f7800004080009e007800710098005d
:101c2000004080009e007800a1009000010898000c
:101c30001e0078002000900001408000ec804000f1
:101c40001100980000408000ec0040001e00780069
:101c500021009800004080009e009000210898001c
:101c60001e009000100078008000e8001e00900028
:101c700001087800110020003e0090006606070071
:101c80000080fa00000006000e00fa0060079800cd
:101c90006e00900030009000300090001007980017
:101ca0001e009000a0089000210798001e009000e0
:101cb000700090009e009000810890002100980024
:101cc0001e009000000890009e009000f10090001f
:101cd000110098002e009000900090001e009000cf
:101ce0006c004000808f500004003a001e009000fd
:101cf000800890002e009000110098001e009000b7
:101d00008000eb00210898002e0090001000780061
:101d10008000e9002e00900001087800d04080008b
:101d20000000e00051003a001e009000d00090003a
:101d3000310798001e009000200090009e00900047
:101d4000b1009000210098001e009000300090002b
:101d50009e009000a1009000110098003e009000ad
:101d6000900090001e0090000080e800808f5000de
:101d700004003a001e009000b00090003e00900069
:101d8000110098001e0090008000eb0051009800a8
:101d90003e009000100078008000e9003e009000b6
:101da000010878001e009000b008900050408000ac
:101db000808f5000030036001e0090003008900015
:101dc000504088001e009000300890006a00b90062
:101dd0008000780060c221000080400090009000e8
:101de000410798001e009000ce009000210098004e
:101df0004e009000a00090001e009000310098005e
:101e00004e009000200090009e0090008180e8002d
:101e1000110098001e0090008080e8004e009000a5
:101e2000210098001e009000300890006a00b90060
:101e30008000780060c22100808040001e00900079
:101e4000510098001e009000300890006a00b90010
:101e50008000780060c2210000804000900078007f
:101e60008100e800010878001800370021e38000b5
:101e7000510798001e009000de009000710098004d
:101e80005e009000a00090001e00900001089800e5
:101e90005e009000200090009e009000ec804000ca
:101ea000110098001e009000ec0040005e009000c1
:101eb000210098001e00900021c6210021089800f2
:101ec00010e380000000e80010e388001e0090008e
:101ed000b00890000040800030089000808f5000d3
:101ee0000500360010002000000f780010002000d0
:101ef00080408800020037000000eb00000f7800ef
:101f00001e0078000080fa00000006000c00fa00b5
:101f100040079800510798005e009000800078000c
:101f200001f0a0004e009000010878004e009000e3
:101f300030009000000f78004e009000c00090002c
:101f4000110798004e00900010009000ce00900005
:101f5000a1009000210098004e0090002000900009
:101f6000ce00900091009000110098001e0090009b
:101f7000900090004e009000808f500004003a00c6
:101f80004e009000a00090001e00900011009800ec
:101f90004e0090008000eb00410098001e00900071
:101fa000100078008000e9001e0090000108780011
:101fb0001e007800d0009000210798001e007800d5
:101fc000200090009e007800b10090002100980051
:101fd0001e007800300090009e007800a100900064
:101fe000110098002e009000900090001e80e800e4
:101ff000808f500004003a001e007800b00090006e
:102000002e009000110098001e0078008000eb0068
:10201000510098002e009000100078008000e90028
:102020002e009000010878001e007800b008900093
:1020300050408000808f5000030036001e00780062
:1020400030089000504088001e0078003008900052
:102050006a00b9008000780060c221000080400062
:1020600090009000310798001e007800be0090009c
:10207000210098003e009000a00090001e00780013
:10208000310098003e009000200090009e80e80003
:10209000110098009e80e8003e009000210098000a
:1020a0001e007800300890006a00b90080007800b7
:1020b00060c22100808040001e007800510098001e
:1020c0001e007800300890006a00b9008000780097
:1020d00060c2210000804000900078008100e8008c
:1020e000010878001e007800b008900000408000d1
:1020f00030089000808f5000020036001000200051
:10210000804088000080fa00000006000200fa000b
:10211000000f780051110700914080001e007800e8
:1021200001087800414080001e00780011009800ee
:10213000571107000080fa00000006000200fa00b4
:10214000000f7800914080001e00780001087800a0
:10215000414080001e007800110098000080fa00c5
:10216000000006000a00fa003007980041079800b6
:102170003a11070041408000110798003e0090008e
:10218000100090009e0090000080500020079800f2
:102190004e00900010007800e10f400003003a006c
:1021a0000000eb00000f7800250037003e00900093
:1021b0009000780090408000808f50000b0032002b
:1021c0003e009000900090001e009000808f500014
:1021d00006003e0010002000000f78004e00900026
:1021e0008000eb0001087800150037004e009000d9
:1021f000900078002e009000808f50000b00360079
:102200004e009000900078002e00900080805000da
:102210004e009000010878003e009000c7ff0700c4
:102220000000eb00000f7800050037004e00900022
:102230008000eb000108780010002000000f7800fb
:10224000131107001e0078000080fa00000006004d
:102250000000fa0010002000804088000080fa0092
:10226000000006000200fa00000f780001003700ad
:10227000000000002300070030e18000e10f500063
:10228000fbff3600ee3302000000000000000000fb
:10229000f8ff37000200fa000000eb00000f7800a2
:1022a000070037001e0078006a00b900800078003f
:1022b00060c2210000804000de0f07001e0fe80012
:1022c0001e007800e30f5000f6ff3600e0c4210046
:1022d000d80f070080c52100d60f070020c62100b7
:1022e000d40f0700c0c62100d20f0700e0c42100b0
:1022f0001040880080c52100204088000080fa003e
:10230000000006000000fa000080fa00000006004d
:102310000000fa0010408000100078000000e0008b
:1023200003003a000080eb00b04088000400370052
:10233000104080003000900010007800b04088000d
:102340000080fa00000006000200fa000140800050
:10235000010f78001e0078000080fa0000000600df
:102360000800fa0030079800be009000110798009e
:102370000000eb00000f78003e0090000000e0003d
:10238000610032001e009000b00890000040800004
:1023900030089000808f5000530031001e009000e4
:1023a000600090000000e000050035000040800063
:1023b00030089000e40010001e00900061009800ba
:1023c0001e009000500190001e0090003008900008
:1023d0006a00b9008000780060c2210000804000df
:1023e000800f510039003a001e0090000080e80084
:1023f0000010070000408000b00890001e00900010
:10240000310898001e009000b008900050408000f5
:10241000808f5000030036001e00900030089000ae
:10242000504088001e009000300890006a00b900fb
:102430008000780060c22100008040009000900081
:10244000210798001e009000ae0090002100980027
:102450002e009000a00090001e0090003100980017
:102460002e009000200090009e0090008180e800e7
:10247000110098001e0090008080e8002e0090005f
:10248000210098001e009000300890006a00b900fa
:102490008000780060c22100808040001e00900013
:1024a000510098001e009000300890006a00b900aa
:1024b0008000780060c22100008040009000780019
:1024c0008100e80001087800040037000040800027
:1024d000b00890001e009000310898001000200005
:1024e000000f7800080037001e0090008010900058
:1024f0000040800030089000808f500002003100c2
:1025000010002000000f78001e0078000080fa0004
:10251000000006000800fa0030079800be00900096
:10252000110798000000eb00000f78003e009000bb
:102530000000e0004e0032001e00900010109000dd
:102540008000e9001e009000111098001e0090000d
:10255000b00890001e00900000109000808f500086
:10256000430032001e009000101090000000e000b8
:102570003f003a001e0090000080e8009d0f070019
:102580001e009000801090001e00900031089800fe
:102590001e00900030089000e40010001e00900023
:1025a000610098001e009000b0089000504080002c
:1025b000808f5000030036001e009000300890000d
:1025c000504088001e009000300890006a00b9005a
:1025d0008000780060c221000080400090009000e0
:1025e000210798001e009000ae0090002100980086
:1025f0002e009000a00090001e0090003100980076
:102600002e009000200090009e0090008180e80045
:10261000110098001e0090008080e8002e009000bd
:10262000210098001e009000300890006a00b90058
:102630008000780060c22100808040001e00900071
:10264000510098001e009000300890006a00b90008
:102650008000780060c22100008040009000780077
:102660008100e8000108780010002000000f7800c9
:102670001e0078000080fa00000006000e00fa003c
:102680005007980061079800de009000110798003d
:1026900010002000200798005e0090000000e0007d
:1026a0005f0032001e009000801090006e009000cd
:1026b000808f5000030031006e019000020f7800ff
:1026c000030037001e00900080109000010f78007a
:1026d0001e009000300890009e0f50005000320005
:1026e0001e009000901090002e009000808f5000ef
:1026f0004b003a001e00900030099000320798000d
:102700001e0090009e007800310898001e00900086
:10271000600090000000e00004003500420020004e
:102720009e0051001e009000610098001e00900065
:10273000500190003e0090006a00b90080007800cf
:1027400060c2210000804000800f510034003a0038
:102750001e0090000080e800260f07001e00900079
:10276000b008900050408000808f50000300360079
:102770001e00900030089000504088001e0090001d
:10278000300890006a00b9008000780060c2210023
:102790000080400090009000410798001e009000cb
:1027a0004e019000220098004e009000a000900082
:1027b0001e009000310098004e0090002000900014
:1027c0009e0090008180e800110098001e0090009b
:1027d0008080e8004e009000210098001e009000cc
:1027e000300890006a00b9008000780060c22100c3
:1027f000808040001e009000510098001e00900054
:10280000300890006a00b9008000780060c22100a2
:1028100000804000900078008100e8000108780006
:102820000080fa00000006000200fa00004080006c
:10283000e0009000010f780000408000014080001f
:10284000b1089000e4801000610098001e0078003c
:102850000080fa00000006000000fa00004080003e
:102860000000e00004003200004080009010900062
:102870008100e80011109800004080000080fa00fc
:10288000000006000a00fa002007980031079800af
:1028900042079800710f0700014080002e00900051
:1028a000690040004200dd00008040001000be00d2
:1028b000e00f5000e08f58000f003a000140800008
:1028c0002e009000008040008002b00011c0b300d4
:1028d000014878004e0090000000e0000600320041
:1028e000110020004e0090004b030700ee33020061
:1028f0000000000000000000650f0700570f0700f0
:10290000014080002e009000690040004200dd0080
:1029100000804000301f7800201778001e00be00a5
:10292000e00f5000e08f5800150032003e0090008c
:102930000000e00008003200014080002e009000fe
:10294000690040004200dd00008140006000b800e6
:102950000089be000a003700034080000082eb00bf
:102960008082eb003e004200ae804a002e019000c3
:10297000690141004211dd00028141000089be0071
:10298000014080002e009000008040008002b000d6
:102990008040eb00014878003d0f07001e00be009c
:1029a0000080fa00000006001000fa00889fbe00b8
:1029b0008a9fbe00100798002207980033079800ee
:1029c000440798005507980061079800760798001b
:1029d000220f0700014080001e0090008002b0001e
:1029e00061407800e24f5000270032000440800030
:1029f0001e009000690040004200dd00000042001f
:102a00001001be002e009000be0090000080ea0081
:102a10008180ea008202780003017800800178005a
:102a200081007800038062008100610081057800e8
:102a3000000578000a00be001e01900069014100f7
:102a40004211dd00020142000089be000140800009
:102a50001e009000008040008002b00011c0b30052
:102a6000014878007e0090000000e000060032007f
:102a7000110020007e009000e7020700ee33020004
:102a80000000000000000000010f0700f30e070027
:102a90006e0090000000e00008003200014080005d
:102aa0001e009000690040004200dd0000804000f0
:102ab0001000be006e0190000089be000140800041
:102ac0001e0090008002b00061407800e24f50008c
:102ad000030032000000eb00000f78001a003700fe
:102ae000044080001e009000690040004200dd00ac
:102af000000042001001be004e009000de00900079
:102b00000080ea008180ea008202780003017800f8
:102b100080017800810078000380620081006100fc
:102b200081047800000478000800be001e019000b7
:102b3000690141004211dd00020142000089be002e
:102b400010002000000f7800014080001e0090005f
:102b5000008040008002b0008040eb000148780017
:102b6000cb0e07001e0078004f05be004f04be00cc
:102b70000080fa00000006001600fa0050079800d6
:102b80006107980072079800030f9800140f9800cf
:102b9000250f980010002000000f7800de00900044
:102ba00011079800ad0e07002e0890000000e0000d
:102bb000080032009e0090006e0090006900400006
:102bc0004200dd00008040001000be002e09900091
:102bd0000089be009e0090006e0090008002b00050
:102be00061417800424798009e0090006e0090007e
:102bf000008040008002b00021c0b300014878008e
:102c00001e089000e20f50001d003200e20f50003d
:102c100005003e000000e00040003200e10f5000df
:102c2000060032003e003700e30f50002300320060
:102c3000e40f50002a003200390037009e00900057
:102c40006e009000690040004200dd0000804000fe
:102c50001001be007e0090008e0890000000710000
:102c6000818071009e0190006e0190006901410019
:102c70004211dd00028141000089be0028003700ba
:102c80009e0090006e009000690040004200dd0050
:102c9000008040001000be0061004000e08048005d
:102ca0009e0190006e019000690141004211dd001b
:102cb000028141000089be00190037009e0090008b
:102cc0006e009000690040004200dd00008040007e
:102cd0007e0190008e0990000288be00100037002f
:102ce0004e409000e24f5000090032009e009000dc
:102cf0006e009000690040004200dd00008040004e
:102d00007e0190008e0990000288be00040037000a
:102d10000000eb00000f7800010037000000000009
:102d20004e409000e14f500059003a001e009000c4
:102d3000d0019000330798001e0090002000900002
:102d40009e009000b1009000210098001e009000ad
:102d5000300090009e009000a100900011009800ab
:102d60003e009000900090001e0090000080e8005f
:102d7000808f500004003a001e009000b0009000c8
:102d80003e009000110098001e0090008000eb00b3
:102d9000510098003e009000100078008000e9008b
:102da0003e009000010878001e009000b0089000de
:102db00050408000808f5000030036001e009000bd
:102dc00030089000504088001e00900030089000ad
:102dd0006a00b9008000780060c2210000804000d5
:102de00090009000410798001e0090004e01900056
:102df000220098004e009000a00090001e0090005d
:102e0000310098004e009000200090009e0090003d
:102e10008180e800110098001e0090008080e8008a
:102e20004e009000210098001e0090003008900095
:102e30006a00b9008000780060c2210080804000f4
:102e40001e009000510098001e0090003008900075
:102e50006a00b9008000780060c221000080400054
:102e6000900078008100e800010878001e009000c2
:102e7000b00890000040800030089000808f500023
:102e800003003600ee3302000000000000000000e6
:102e9000ff0d07001e0078000080fa000000060009
:102ea0001c00fa0070079800010f9800120f98009c
:102eb000230f9800340f9800450f9800560f980084
:102ec00010002000000f7800fe009000110798000d
:102ed0000000eb00200798004e0890000000e00082
:102ee000080032009e0090000e089000690040002b
:102ef0004200dd00008040001000be004e0990003e
:102f00000089be009e0090000e0890008002b00074
:102f100061417800624798009e0090000e08900082
:102f2000008040008002b00021c0b300014878005a
:102f30003e089000e20f50001d003200e20f5000ea
:102f400005003e000000e00040003200e10f5000ac
:102f5000060032003e003700e30f5000230032002d
:102f6000e40f50002a003200390037009e00900024
:102f70000e089000690040004200dd000080400023
:102f80001001be001e089000ae0890000000710005
:102f9000818071009e0190000e099000690141003e
:102fa0004211dd00028141000089be002800370087
:102fb0009e0090000e089000690040004200dd0075
:102fc000008040001000be0061004000e08048002a
:102fd0009e0190000e099000690141004211dd0040
:102fe000028141000089be00190037009e00900058
:102ff0000e089000690040004200dd0000804000a3
:103000001e099000ae0990000288be001000370033
:103010006e409000e24f5000090032009e00900088
:103020000e089000690040004200dd000080400072
:103030001e099000ae0990000288be00040037000f
:103040000000eb00000f78000100370000000000d6
:103050006e409000e14f50007a003a00d04080006e
:103060000000e00051003a001e009000d0019000e6
:10307000430798001e009000200090009e009000e2
:10308000b1009000210098001e00900030009000d8
:103090009e009000a1009000110098004e0090004a
:1030a000900090001e0090000080e800808f50008b
:1030b00004003a001e009000b00090004e00900006
:1030c000110098001e0090008000eb005100980055
:1030d0004e009000100078008000e9004e00900043
:1030e000010878001e009000b00890005040800059
:1030f000808f5000030036001e00900030089000c2
:10310000504088001e009000300890006a00b9000e
:103110008000780060c22100008040009000900094
:10312000510798001e0090005e0190002200980058
:103130005e009000a00090001e00900031009800fa
:103140005e009000200090009e0090008180e800ca
:10315000110098001e0090008080e8005e00900042
:10316000210098001e009000300890006a00b9000d
:103170008000780060c22100808040001e00900026
:10318000510098001e009000300890006a00b900bd
:103190008000780060c2210000804000900078002c
:1031a0008100e800010878001800370023e3800060
:1031b000630798001e009000ee00900071009800d8
:1031c0006e009000a00090001e0090000108980082
:1031d0006e009000200090009e009000ec80400067
:1031e000110098001e009000ec0040006e0090005e
:1031f000210098001e00900021c62100210898009f
:1032000010e380000000e80010e388001e0090003a
:10321000b00890000040800030089000808f50007f
:10322000080036005e0890000000e0000300320055
:103230005e089000110020000108780010002000b6
:10324000804088001e0078000080fa000000060020
:103250001200fa006007980071079800020f9800aa
:10326000ee009000010f78000000eb0010079800be
:103270009e0078007e0090008002b00061417800de
:10328000424798009e0078007e0090000080400039
:103290008002b00021c0b300014878009e00780091
:1032a0007e009000690040004200dd000080400088
:1032b0001000be0061004000e08048009e017800e0
:1032c0007e019000690141004211dd000281410050
:1032d0000089be004e409000e14f500077003a0058
:1032e000d04080000000e0004e003a001e00780050
:1032f000d0009000310798001e0078002000900058
:103300009e007800b1009000210098001e00780017
:10331000300090009e007800a100900011009800fd
:103320003e009000900090001e80e800808f5000ca
:1033300004003a001e007800b00090003e009000ab
:10334000110098001e0078008000eb0051009800ea
:103350003e009000100078008000e9003e009000e0
:10336000010878001e007800b008900050408000ee
:10337000808f5000030036001e0078003008900057
:10338000504088001e007800300890006a00b900a4
:103390008000780060c22100008040001001900091
:1033a000420798001e007800ce009000210098008f
:1033b0004e009000a00090001e00780031009800a0
:1033c0004e009000200090009e80e80011009800c0
:1033d0009e80e8004e009000210098001e007800ba
:1033e000300890006a00b9008000780060c22100b7
:1033f000808040001e007800510098001e00780078
:10340000300890006a00b9008000780060c2210096
:1034100000804000900078008100e80001087800fa
:103420001800370022e38000520798001e00780041
:10343000de009000710098005e009000a0009000f7
:103440001e007800010898005e00900020009000a7
:103450001e017800ec004100110098001e01780068
:10346000ec0041005e009000210098001e007800f2
:1034700021c621002108980010e380000000e80028
:1034800010e388001e007800b00890000040800023
:1034900030089000808f5000080036000e08900021
:1034a0000000e000030032000e0890001100200030
:1034b0000108780010002000804088000080fa0099
:1034c000000006000800fa00200798003107980065
:1034d0002e0090000000e00002003a000040800052
:1034e000010037002e009000100798005b0c0700c9
:1034f0009e0090003e0090008002b0006140780085
:10350000e24f500009003a009e0090003e009000fb
:10351000008040008002b0008040eb00014878004d
:1035200010002000000f7800020037000000eb00c0
:10353000000f7800560c07001e0078000080fa008b
:10354000000006000e00fa00889fbe0030079800b9
:103550004107980052079800630798003e009000ca
:103560000000e00002003a00004080000100370047
:103570003e009000000f7800380c07009e00780095
:103580004e009000690040004200dd0000804000d5
:103590001001be0012079800230798009e007800d3
:1035a0004e009000690040004200dd0000804000b5
:1035b0001001be005e009000ee0090000080ea0066
:1035c0008180ea000202780003017800800178001f
:1035d00081007800030062008100610081047800ae
:1035e000000478000800be009e0178004e019000a3
:1035f000690141004211dd00028141000089be00e5
:10360000230c07001e009000ae0090004f04be0087
:103610000080fa00000006000a00fa003007980057
:103620004107980041408000010f78000040800071
:103630000080e8006f0b07003e009000e10f4000a3
:103640001c003a004e0090000000e000190032001b
:1036500071e3800011079800004080009e009000f8
:1036600021009800004080009e009000a100900082
:10367000310098001e009000200090000140800062
:103680008180e80011009800004080008080e80000
:103690001e0090002100980000408000c1c621005b
:1036a0005100980060e380000000e80060e38800bb
:1036b000180037003e0090001e00400020079800d0
:1036c00000408000ae009000110098002e00900095
:1036d0009e0f500005003100004080008080e8000f
:1036e00020408000110b07000a00370000408000d6
:1036f0008080e800104080000c0b0700b040800084
:10370000ae009000808f500002003100ae009000ab
:10371000b14088000080fa00000006000800fa00ae
:10372000200798003107980010002000000f780053
:10373000ae009000110798001e0090000000e0000d
:103740004c0032001e009000700890000000e00065
:10375000480032001e009000700890000108200010
:1037600000017800110009008280d80080007800f4
:103770001e00900000109000808f50003d00390026
:10378000b60b07001e009000100178001e0090008c
:10379000f00890001e009000001090000088b90012
:1037a00000007800800041001e0090002100980079
:1037b0001e0090008000eb00610898001e00900041
:1037c000900078001e009000110098001e009000ec
:1037d000100178001e009000700890008000e90041
:1037e0001e009000001090000088b90000007800d2
:1037f000800041001e009000310098001e009000e3
:1038000080c0eb00216098001e00900080c0eb009b
:10381000316098003e0090000000e0000d003a008a
:103820001e009000400090000000e0000f003200f9
:103830001e0090006800400013f907000000e0003f
:103840000a003200ee330200000000000000000019
:10385000060037001e00900068004000750a07004f
:103860001e00900072004000720a0700880b0700db
:10387000020037000000eb00000f78001e00780007
:103880000080fa00000006000c00fa0030079800e3
:1038900041079800224f98000000eb00000f7800cd
:1038a0003e0090000000e0002700320001082000e8
:1038b0003e00900000017800110009008280d800cd
:1038c000800078004e009000808f50001e0039006c
:1038d000be0090004e0090000088b9008000780083
:1038e000c0052000808f500017003e00be009000f1
:1038f0004e0090000088b900000078001007980082
:103900001e0090004002b0006f0b0700000f78000f
:103910001e0078000000e0000b0032009e007800de
:10392000210798002e0090004002b0002007980068
:103930001e027800ae4990002e019000ce0090004b
:103940003e009000030007001e0078000080fa008f
:10395000000006000a00fa00000f78001107980026
:103960002207980063479800440798001e009000c3
:103970000000e00004003a00ce0090004e009000ed
:103980000108780003003700ae0090004e00900060
:10399000010878004e0090009e00780071089800a1
:1039a0004e0090009e009000011098001100200031
:1039b0004e00900059ff07000080fa00000006004a
:1039c0000200fa00000f78001e0078000000e000fe
:1039d0000e0032001e0078008000eb0021009800ed
:1039e0001e0078008000eb00010878001e007800bf
:1039f0008000eb00310098008001eb000001eb003b
:103a00008000eb001e0078002c0007000080fa0008
:103a1000000006000800fa0060479800100020002f
:103a2000000f78000000eb00100798006e41900036
:103a30009e0090001e00780093ff0700200798006a
:103a40002e009000deff07002e0090000080fa009c
:103a5000000006000600fa001007980021079800f1
:103a60000000eb00000f78001e0090000000e00056
:103a70000f003200ae0090001e009000808f5000ba
:103a80000b003e0022c0b3008000eb001e0090003f
:103a90007dff0700000f78001e0078000000e000a6
:103aa000030032001e007800ae009000610898000c
:103ab0001e0078000080fa00000006001200fa00e4
:103ac000500798006107980072079800030f98004c
:103ad0000000eb00000f7800de0090001107980056
:103ae0000100370000000000dc0a07001e00900003
:103af000e00890001e00900070089000808f500039
:103b0000030039000e089000e20f50001b003a003d
:103b10000e099000ee0090001e009000cd020700fc
:103b2000200798001e009000100890000000e000a0
:103b3000090032001e0090007200400052f8070099
:103b40000000e0000a003200ee3302000000000036
:103b500000000000060037002e0090000000e0008a
:103b600003003200ee3302000000000000000000fd
:103b7000c70a0700100020003d0037007e009000bb
:103b80000000e00003003a00c10a07000000eb005b
:103b9000370037001e0078000000e00004003a0003
:103ba0006600470065f9070010002000000f78004c
:103bb000b70a070029f60700a80a07001e009000b0
:103bc00020609000e14f400003003a001e0090008a
:103bd0008040eb00216098001e0090003060900053
:103be000e14f400003003a001e0090008040eb00cf
:103bf00031609800a60a0700ee0047006600470003
:103c000058f907000000e00015003a001e0090007f
:103c10006c0307000000e0000d003200fe00900081
:103c20001e00900068004000e2f707001e009000b0
:103c30000c0307000ff607000000e000a9ff3a00a0
:103c4000ee3302000000000000000000a6ff370075
:103c50001e0090000303070006f60700a2ff3700ce
:103c60001e009000ff02070002f607000000eb00b4
:103c70000080fa00000006001400fa0060079800b7
:103c800071079800020f9800130f9800ee00900043
:103c9000110798000000eb00200798001e0090001c
:103ca000e00890001e00900070089000808f500087
:103cb000030039001e089000e20f50002c003a006b
:103cc0001e009000b0609000614798001e009000b8
:103cd000e0089000410798001e099000fe00900047
:103ce0001e0090005b0207006e409000e14f400014
:103cf00010003a001e009000100890000000e00044
:103d0000180032001e00900072004000def707002d
:103d10000000e000130032000e0890000000e000f8
:103d2000100032000e0890001100200001087800f9
:103d30000c00370088f60700500798006e4090008e
:103d40008000fb005e009000808f50000500310075
:103d50006e4090000040e800804078001e00900017
:103d60003160980010002000000f7800020037003a
:103d70000000eb00000f78001e0078000080fa00c1
:103d8000000006001000fa00600798007107980014
:103d9000ee009000110798000000eb00200798004b
:103da0001e009000e0089000310798001e0090006f
:103db000f00890003e009000808f500029003600ef
:103dc0001e009000b0609000014f98003e009000ef
:103dd0008000e8001e009000610898000e489000e6
:103de000e14f400010003a001e00900010089000c3
:103df0000000e000180032001e0090007200400039
:103e0000a1f707000000e000130032007e009000e0
:103e10000000e000100032007e0090001100200041
:103e2000010878000c0037004bf607005007980097
:103e30000e4890008000fb005e009000808f5000d4
:103e4000050031000e4890000040e80080407800f6
:103e50001e0090003160980010002000000f7800d4
:103e6000020037000000eb00000f78001e00780011
:103e70000080fa00000006001000fa0050079800c9
:103e800061079800720798000000eb00000f7800af
:103e9000de009000110798000300370000000000ca
:103ea0000100370000000000ec0907001e00900030
:103eb000e0089000210798002e0090000000e0002c
:103ec00016003200ee0090001e0090004302070032
:103ed0002e0090008000e9001e009000610898000c
:103ee0001e009000400090000000e000080032003a
:103ef0001e0090006800400063f707000000e0002b
:103f000003003200ee330200000000000000000059
:103f1000df09070010002000410037007e009000fc
:103f20000000e00003003a00d90907000000eb00a0
:103f30003b0037001e0078000000e00004003a005b
:103f4000660047007df8070010002000000f780091
:103f5000cf09070041f50700c00907001e009000c7
:103f600020609000e14f400003003a001e009000e6
:103f70008040eb00216098001e00900030609000af
:103f8000e14f400003003a001e0090008040eb002b
:103f900031609800be090700ee0047006600470048
:103fa00070f807000000e00015003a001e009000c5
:103fb000640207000000e0000d003200fe009000e7
:103fc0001e00900072004000faf607001e009000ec
:103fd0002402070027f507000000e000afff3a00c9
:103fe000ee3302000000000000000000aeff3700ca
:103ff0001e0090001b0207001ef50700aaff3700f5
:104000001e009000170207001af507001e0090001e
:104010004c0207000000e000a2ff32000000eb00ad
:104020000080fa00000006001200fa0070079800f5
:10403000010f98000000eb00000f7800fe009000d8
:10404000210798000000eb001007980003003700dc
:104050000000000001003700000000007f09070099
:104060002e009000e0089000310798003e0090007c
:104070000000e0001a0032003e0090008000e900dd
:104080002e009000610898002e009000100078002b
:104090000000e00003003a00eff90700ae009000d6
:1040a000a00098002e009000400090000000e0006a
:1040b000080032002e00900068004000f2f6070071
:1040c0000000e00003003200ee33020000000000b8
:1040d000000000006e0907001000200057003700a4
:1040e0000e0890000000e00003003a006809070095
:1040f0000000eb00510037001e0078000000e000d7
:1041000004003a006a0047000cf807001000200085
:10411000000f78005e090700d0f407004f09070080
:104120002e00900020609000e14f400003003a0014
:104130002e0090008040eb00216098002e0090003f
:1041400030609000e14f400003003a002e009000e4
:104150008040eb00316098004d090700f0004700f7
:104160006a004700fff707000000e0001f003a0068
:104170002e009000f30107000000e000170032005d
:104180002e009000100078000000e00006003a00c9
:10419000320907002e0090002000900070f8070000
:1041a000100798003a0907008e0890002e00900032
:1041b000720040007ff607002e009000a901070062
:1041c000acf407000000e000a1ff3a00ee3302006b
:1041d0000000000000000000a0ff37002e0090004b
:1041e000a0010700a3f407009cff37002e009000f9
:1041f0009c0107009ff407002e009000d1010700ea
:104200000000e00094ff32001e0090000000e0007b
:1042100009003200110907002e009000fd00070080
:10422000400798002e00900020009000ce009000e3
:1042300012f90700160907000000eb000080fa00e1
:10424000000006001200fa0060079800710798004d
:10425000020f98000000eb00000f7800ee009000c5
:10426000110798000300370000000000010037002c
:1042700000000000f90807001e009000e008900010
:10428000210798002e0090000000e0001800320086
:104290001e009000b000900031079800fe009000d2
:1042a0001e0090004d0107001e009000be0090000f
:1042b000310098001e009000100890000000e000ff
:1042c000080032001e009000720040006ef60700e9
:1042d0000000e00003003200ee33020000000000a6
:1042e00000000000ea08070010002000410037002d
:1042f0000e0890000000e00003003a00e408070008
:104300000000eb003b0037001e0078000000e000da
:1043100004003a006800470088f7070010002000fa
:10432000000f7800da0807004cf40700cb080700fc
:104330001e00900020609000e14f400003003a0012
:104340001e0090008040eb00216098001e0090004d
:1043500030609000e14f400003003a001e009000e2
:104360008040eb0031609800c9080700f00047006a
:10437000680047007bf707000000e00015003a00e6
:104380001e0090006f0107000000e0000d003200e9
:104390008e0890001e0090007200400005f6070095
:1043a0001e0090002f01070032f407000000e0001b
:1043b000adff3a00ee3302000000000000000000f4
:1043c000acff37001e0090002601070029f407000b
:1043d000a8ff37001e0090002201070025f4070007
:1043e0001e009000570107000000e000a0ff32000f
:1043f0000000eb000080fa00000006001200fa0046
:104400006007980071079800020f9800ee00900076
:10441000110798000000eb00200798001e00900094
:10442000e0089000310798003e0090000000e00096
:104430002c0032001e009000a0609000014f9800f8
:10444000fe0090001e009000e40007003e00900077
:104450008000e9001e009000610898000e4890005e
:10446000e14f400010003a001e0090004000900014
:104470000000e000180032001e00900068004000bc
:1044800001f607000000e000130032000e08900063
:104490000000e000100032000e0890001100200023
:1044a000010878000c003700abf4070050079800b3
:1044b0000e4890008000fb005e009000808f50004e
:1044c000050031000e4890000040e8008040780070
:1044d0001e0090002160980010002000000f78005e
:1044e000020037000000eb00000f78001e0078008b
:1044f0000080fa00000006000c00fa004007980057
:1045000051079800ce009000110798000000eb00c2
:10451000200798001e009000600890000000e00056
:104520000c0032001e009000b0009000310798008f
:10453000de0090001e009000a80007001e00900002
:10454000be0090003100980010002000000f78009d
:10455000020037000000eb00000f78001e0078001a
:104560000080fa00000006000400fa00100798001e
:104570003a0807001e009000e0089000010f780044
:10458000430807001e0078000080fa0000000600c3
:104590000600fa0020079800ae009000010f780096
:1045a0002e0807001e007800f00890001e0078001a
:1045b0006008900000805000100798003408070041
:1045c0001e0090000080fa00000006000600fa00bd
:1045d00020079800ae009000010f78001e007800c0
:1045e000e0089000110798001e0090000080fa007b
:1045f000000006000400fa00100798009e009000da
:10460000010f78001e007800660807000080fa009d
:10461000000006000400fa00100798001e00900039
:10462000100890000000e000050032001e0090001d
:104630004008900010007800640f1000020037005e
:104640000000eb00000f78001e0078000080fa00e8
:10465000000006000a00fa002007980031079800c1
:10466000420798000000eb00000f78002e00900039
:10467000e0089000110798002e00900000109000b4
:104680000000e0000c003a002e00900010007800be
:104690000000e0004a003a002e0090002000900048
:1046a0009cf70700000f78002e0090008000eb00c0
:1046b00021009800420037004e0090000000e0000a
:1046c00019003a002e009000801090002e009000fb
:1046d0001000900001017800be009000cdef0700af
:1046e0002e009000900090002e009000001090008e
:1046f000808040002e009000110098002e00900055
:10470000900090002e00900020009000808f5000bc
:104710002b0039002e009000900078002e009000b1
:1047200011009800260037002e00900080109000a5
:104730002e0090003000900001017800be00900033
:10474000b4ef07002e009000b00090002e00900003
:10475000001090000000ea00808040002e009000d1
:10476000310098002e009000b00090002e009000c4
:1047700010007800808f5000080031002e0090005b
:10478000a00090002e009000001090000000ea00b1
:10479000808040002e009000310098004e00900074
:1047a000e20f500006003a001e0090000000e000fa
:1047b000030032001e0090000000e900100798007e
:1047c0001e0090008000e8002e0090006108980014
:1047d0001e0078000080fa00000006000400fa00c5
:1047e000000f7800110798001e007800001090005c
:1047f0000000e000190032001e007800b0009000b8
:104800001e00780000109000808040001e0078009c
:10481000310098001e007800b00090001e00780063
:1048200020009000808f5000040039001e007800a6
:10483000900078001e007800310098001e0078007b
:10484000801090001e007800300090000101780078
:10485000800078001e0090006eef07000080fa00d4
:10486000000006000400fa00100798007b0707000c
:104870001e009000b0609000014f78000b003700e0
:104880001e009000100890000000e0000b003200b5
:104890001e00900072004000fbf407000000e000e2
:1048a000010032006af607001e4fe9001e40780042
:1048b0000004e000f2ff3c000100370000000000af
:1048c0001e00900080c0eb00316098007007070068
:1048d000620707001e009000a0609000114798003a
:1048e0000d0037001e009000400090000000e00026
:1048f0000d0032001e00900068004000e2f4070046
:104900000000e0000100320051f607001e40900058
:104910000040e900104798001e4090000004e000ad
:10492000f0ff3c0001003700000000001e00900076
:1049300080c0eb0021609800550707000080fa0056
:10494000000006000400fa00100798004307070063
:104950001e009000600890000000e00003003a0094
:1049600010002000000f7800020037000000eb006c
:10497000000f7800460707001e0078000080fa004c
:10498000000006000600fa0020079800ae00900024
:10499000110798001e009000600890000000e000e1
:1049a00003003a0010002000000f780002003700da
:1049b0000000eb00000f78001e0078000080fa0075
:1049c000000006000400fa00100798002307070003
:1049d0001e009000e00890001e00900070089000fb
:1049e000808f500003003a0010002000000f780074
:1049f000020037000000eb00000f780024070700da
:104a00001e0078000080fa00000006000600fa0090
:104a100020079800ae009000110798001e0090003b
:104a2000e00890001e00900070089000808f5000f9
:104a300003003a0010002000000f78000200370049
:104a40000000eb00000f78001e0078000080fa00e4
:104a5000000006000e00fa002007980031079800b9
:104a60004207980053079800640798004e00900092
:104a7000e10f500003003a0010c0b3002047980037
:104a8000020037000040eb00204798003e009000f5
:104a90000000e00002003a001000200030079800fb
:104aa0002e009000f10040002e009000808f5000fa
:104ab000080036002e0090000000e8002007980053
:104ac0002e00900070004000ff060700000f7800e5
:104ad000020037000000eb00000f78001e00780095
:104ae0000000e000090032001e017800f0004100e3
:104af0001e0078006e039000de0290002e429000af
:104b0000be0190002e019000380307001e007800bf
:104b10000080fa00000006000400fa001007980068
:104b20009e009000010f78001e0078006048900001
:104b30000080fb00620060000000e00003003a001b
:104b40001e0078001707070004003700020120004c
:104b50008000eb001e007800b5ee07000080fa0030
:104b6000000006000a00fa0040079800ce009000fe
:104b7000110798000000eb00000f78000000eb0028
:104b8000200798000000eb0030079800b3060700ec
:104b90001e009000400090000000e00016003a0067
:104ba0001e009000500090000000e00012003a004b
:104bb0001e009000e04990001e009000300190001f
:104bc0001e009000a00090001e0090006000900069
:104bd0003e039000ae02900003427800820178000c
:104be00001017800800078001e009000ff0207009d
:104bf00010002000000f7800a50607001e007800b6
:104c00000080fa00000006000800fa002007980063
:104c100031079800ae009000110798003e00900008
:104c20000000e00002003a00100020003007980069
:104c30001e009000a00090003e009000808f500069
:104c4000060036001e009000be0090003100980063
:104c500010002000000f7800020037000000eb0079
:104c6000000f78001e0078000080fa0000000600a7
:104c70000800fa0030079800be0090001107980065
:104c80001e00900090007800210798001e00900000
:104c9000a00090001e00900010007800008f4000df
:104ca0001e009000100090001e0f10001e009000cb
:104cb000900078002e009000808f5000f0ff3a00a6
:104cc0001e0fe9001e009000200090009e0f500073
:104cd00003003e001e009000200090001e0f1000f8
:104ce0001e0078000080fa00000006000600fa00ae
:104cf00020079800ae009000010f78001e00780099
:104d0000a6020700100798001e0090000080fa001d
:104d1000000006001600fa0070079800010f9800c6
:104d2000120f9800230f9800fe00900021079800b2
:104d30000000eb00000f78009e089000110798001b
:104d40000000eb00300798002e009000200090003b
:104d50000000e900300798002e00900060489000a5
:104d60000080fb0061006000004078000004e0006b
:104d70000a0032001e0090000080e8001007980032
:104d80009e0090003e009000808f50000900360089
:104d90000000eb00200f9800060037009e009000f6
:104da0003e009000808f500002003600be00900050
:104db000110798002e0890000000e0002300320048
:104dc0006a004700d1f40700240607002e00900077
:104dd000a7ff0700000f78001e0090009e007800db
:104de000808f5000170031008000eb000000eb00c6
:104df000b4f9070054f50700ae009000d000980009
:104e0000230607002e089000000378008000eb00c6
:104e10006022b8006011b8000000eb00e2f6070065
:104e20002e0090008000eb0051009800f400470035
:104e30006a004700cbf407000000e000e2ff320008
:104e40000200370012060700000000001e00780074
:104e50000000e00003003a002e00900084ff0700ed
:104e6000000f78001e0290009e0178001e0990003d
:104e70008e0890002e009000550007004007980013
:104e80004e0090000000e000160032002e0090005e
:104e900042020700ae009000b1009000810f500068
:104ea000100039006df107002e00900040009000c6
:104eb0000000e0000a0032002e0090004000900048
:104ec0008002eb000002eb006011b8008000eb00f4
:104ed00029f707002e0090008000eb0041009800a9
:104ee00064f107004e0090000080fa000000060008
:104ef0001200fa00500798006107980072079800a6
:104f0000030f9800de00900011079800fe0090004b
:104f1000010f78001e009000604890000080fb00a8
:104f200061006000004078000004e00001003200f1
:104f30001e8fe8001e0090004dff0700200798001c
:104f40001e027800ae0190007e019000ee009000fd
:104f50001e0090001e000700300798003e009000e1
:104f60000000e000170032001e0090000b02070056
:104f70009e009000b1009000810f50001100390098
:104f80000000eb00400798001e00900040009000d9
:104f90000000e0000b0032001e0090004000900076
:104fa0000e0b90008002eb000002eb006011b800d5
:104fb0008000eb00baf707001e0090008000eb00b5
:104fc000410098003e0090000080fa0000000600ba
:104fd0000e00fa0020079800310798004207980059
:104fe00053079800640798002e00900090009000ee
:104ff000010f78002e009000604890000080fb00b8
:1050000061006000004078000004e0001100320000
:10501000ce00900011079800de0090006e00900016
:10502000808f5000080039000e80e8009e01780053
:1050300022002000800078002e00900076010700fa
:10504000000f7800090037000000eb0040079800cf
:1050500006003700ce0090005e009000810f5000e7
:105060000100360001007800400798004e009000d3
:105070000000e000080032003e0090009e01780031
:105080004e019000800078002e0090006201070021
:10509000ae009000900098004e0090000080fa0052
:1050a000000006001000fa00400798005107980021
:1050b0006207980073079800ce00900031079800af
:1050c0000000eb00000f78003e0090006048900068
:1050d0000080fb0061006000004078000004e000f8
:1050e0000300320020002000200798000200370053
:1050f0000000eb00200798007e0090000000e00018
:1051000020003200550507003e009000a301070073
:10511000100798009e0090002e009000808f500095
:1051200006003e008000eb000000eb00e5f8070001
:1051300085f40700be009000c000980054050700e9
:105140009e0090002e009000808f500010003e00c6
:105150007e0390008000eb006022b8006011b80070
:105160000000eb0010f607003e0090008000eb000e
:10517000410098003e009000880107001007980049
:10518000030037003e0090008401070010079800dc
:105190009e0090002e009000808f50001900360075
:1051a0009e0190006e019000de0090003e00900095
:1051b00074000700000f78001e0078000000e00077
:1051c00010003200a5f007004e0090005000900043
:1051d0000000e0000a0032004e00900050009000f5
:1051e0008002eb000002eb006011b8008000eb00d1
:1051f00061f607004e0090008000eb00510098001f
:105200009cf007001e0078000080fa0000000600f5
:105210000a00fa0040079800ce009000110798009d
:105220001e009000604890000080fb00610060005c
:10523000004078000004e000140032001e009000de
:1052400056010700200798002e009000e20f500042
:105250000b0036001e0090009000780066004700aa
:105260008101780022002000800078001e0090005c
:1052700019010700be009000010f780005003700fb
:105280000000eb00000f7800020037000000eb0088
:10529000000f78001e0078000080fa000000060071
:1052a0001200fa00500798006107980072079800f2
:1052b000030f9800de009000210798000000eb002b
:1052c000000f78002e009000604890000080fb00e6
:1052d00061006000004078000004e000030032003c
:1052e0002000200010079800020037000000eb00ab
:1052f000100798002e009000280107003007980042
:10530000be0090001e009000808f50001a003600f2
:10531000be0190007e019000ee0090002e009000f3
:1053200018000700000f78001e0078000000e00061
:10533000110032000000eb00400798002e009000a2
:10534000500090000000e0000b0032002e009000a2
:10535000500090000e0b90008002eb000002eb006a
:105360006011b8008000eb00cdf607002e00900021
:105370008000eb00510098001e0078000080fa00c9
:10538000000006001000fa0040079800510798003e
:1053900062079800730798004e0090009000780014
:1053a000110798004e009000604890000080fb00bc
:1053b00061006000004078000004e000130032004b
:1053c000660047009e0190002200200080007800c7
:1053d0004e009000c000070010079800be0090002b
:1053e000010f78007e0090000080e90070079800af
:1053f0006e0090009e007800808f500005003600ff
:105400000000eb00000f780002003700ee00900073
:10541000010f78009e0078007e009000810f500000
:105420000100360001007800200798002e0090004f
:105430000000e000080032005e0090009e01900035
:105440002e019000800078004e009000a20007001e
:10545000ce009000800878002e0090000080fa00b6
:10546000000006000800fa0030079800be00900017
:10547000110798001e009000900078002107980006
:105480001e009000900090002e009000808f500031
:1054900003003a0010002000000f780002003700df
:1054a0000000eb00000f78001e0078000080fa007a
:1054b000000006000800fa0030079800be009000c7
:1054c000210798002e009000604890000080fb00ab
:1054d00061006000004078000004e000030032003a
:1054e0002000200010079800020037000000eb00a9
:1054f000100798003e009000ddfd07009e00900020
:10550000810f500003003e0010002000000f7800c3
:10551000020037000000eb00000f78001e0078004a
:105520000080fa00000006000a00fa003007980028
:1055300041079800be009000110798000000eb00a2
:10554000200798001e009000400090000000e0003e
:105550000e0032001e009000400090004e039000ac
:105560008002eb000002eb006011b8008000eb004d
:105570004bf607001e0090008000eb0041009800f1
:1055800010002000000f7800020037000000eb0040
:10559000000f78001e0078000080fa00000006006e
:1055a0000a00fa003007980041079800be009000fa
:1055b000110798000000eb00200798001e009000e3
:1055c000500090000000e0000e0032001e0090002d
:1055d000500090004e0390008002eb000002eb00b0
:1055e0006011b8008000eb002df607001e0090004f
:1055f0008000eb005100980010002000000f7800a0
:10560000020037000000eb00000f78001e00780059
:105610000080fa00000006000a00fa001007980057
:105620002107980032079800430798001e00900059
:10563000a00090004e00900000805000be0090003e
:10564000810f50000100360001007800000f780043
:105650001e009000e00090004e009000008040008e
:105660001e017800ae009000eaeb07003e009000bb
:105670009e0f5000070036003e0090001e015000b3
:105680002e0090009e0040001e00900060009000e0
:10569000e0eb0700ce0090003e009000008040004c
:1056a000400798001e009000a00090004e0090005f
:1056b000808f500005003e001e00900020009000ea
:1056c000ce00900000805000400798004e009000ef
:1056d0000080fa00000006000a00fa001007980097
:1056e0002107980032079800430798001e00900099
